{
  "contractName": "Contracts",
  "abi": [
    {
      "inputs": [],
      "payable": false,
      "stateMutability": "nonpayable",
      "type": "constructor"
    },
    {
      "constant": true,
      "inputs": [],
      "name": "count",
      "outputs": [
        {
          "internalType": "uint256",
          "name": "",
          "type": "uint256"
        }
      ],
      "payable": false,
      "stateMutability": "view",
      "type": "function"
    },
    {
      "constant": true,
      "inputs": [
        {
          "internalType": "uint256",
          "name": "",
          "type": "uint256"
        }
      ],
      "name": "persons",
      "outputs": [
        {
          "internalType": "uint256",
          "name": "id",
          "type": "uint256"
        },
        {
          "internalType": "string",
          "name": "name",
          "type": "string"
        },
        {
          "internalType": "string",
          "name": "email",
          "type": "string"
        },
        {
          "internalType": "bool",
          "name": "rich",
          "type": "bool"
        }
      ],
      "payable": false,
      "stateMutability": "view",
      "type": "function"
    },
    {
      "constant": false,
      "inputs": [
        {
          "internalType": "string",
          "name": "_name",
          "type": "string"
        },
        {
          "internalType": "string",
          "name": "_email",
          "type": "string"
        },
        {
          "internalType": "bool",
          "name": "_rich",
          "type": "bool"
        }
      ],
      "name": "createPerson",
      "outputs": [],
      "payable": false,
      "stateMutability": "nonpayable",
      "type": "function"
    }
  ],
  "bytecode": "0x60806040526000805534801561001457600080fd5b506100916040518060400160405280600581526020017f6c69616e670000000000000000000000000000000000000000000000000000008152506040518060400160405280601881526020017f6c69616e676e69616e676261627940676d61696c2e636f6d0000000000000000815250600061009660201b60201c565b6101f1565b6040518060800160405280600054815260200184815260200183815260200182151581525060016000805481526020019081526020016000206000820151816000015560208201518160010190805190602001906100f592919061014c565b50604082015181600201908051906020019061011292919061014c565b5060608201518160030160006101000a81548160ff0219169083151502179055509050506000808154809291906001019190505550505050565b828054600181600116156101000203166002900490600052602060002090601f016020900481019282601f1061018d57805160ff19168380011785556101bb565b828001600101855582156101bb579182015b828111156101ba57825182559160200191906001019061019f565b5b5090506101c891906101cc565b5090565b6101ee91905b808211156101ea5760008160009055506001016101d2565b5090565b90565b6105ea806102006000396000f3fe608060405234801561001057600080fd5b50600436106100415760003560e01c806306661abd14610046578063a2f9eac614610064578063d39f22d814610189575b600080fd5b61004e6102e7565b6040518082815260200191505060405180910390f35b6100906004803603602081101561007a57600080fd5b81019080803590602001909291905050506102ed565b60405180858152602001806020018060200184151515158152602001838103835286818151815260200191508051906020019080838360005b838110156100e45780820151818401526020810190506100c9565b50505050905090810190601f1680156101115780820380516001836020036101000a031916815260200191505b50838103825285818151815260200191508051906020019080838360005b8381101561014a57808201518184015260208101905061012f565b50505050905090810190601f1680156101775780820380516001836020036101000a031916815260200191505b50965050505050505060405180910390f35b6102e56004803603606081101561019f57600080fd5b81019080803590602001906401000000008111156101bc57600080fd5b8201836020820111156101ce57600080fd5b803590602001918460018302840111640100000000831117156101f057600080fd5b91908080601f016020809104026020016040519081016040528093929190818152602001838380828437600081840152601f19601f8201169050808301925050505050505091929192908035906020019064010000000081111561025357600080fd5b82018360208201111561026557600080fd5b8035906020019184600183028401116401000000008311171561028757600080fd5b91908080601f016020809104026020016040519081016040528093929190818152602001838380828437600081840152601f19601f82011690508083019250505050505050919291929080351515906020019092919050505061045a565b005b60005481565b6001602052806000526040600020600091509050806000015490806001018054600181600116156101000203166002900480601f01602080910402602001604051908101604052809291908181526020018280546001816001161561010002031660029004801561039f5780601f106103745761010080835404028352916020019161039f565b820191906000526020600020905b81548152906001019060200180831161038257829003601f168201915b505050505090806002018054600181600116156101000203166002900480601f01602080910402602001604051908101604052809291908181526020018280546001816001161561010002031660029004801561043d5780601f106104125761010080835404028352916020019161043d565b820191906000526020600020905b81548152906001019060200180831161042057829003601f168201915b5050505050908060030160009054906101000a900460ff16905084565b6040518060800160405280600054815260200184815260200183815260200182151581525060016000805481526020019081526020016000206000820151816000015560208201518160010190805190602001906104b9929190610510565b5060408201518160020190805190602001906104d6929190610510565b5060608201518160030160006101000a81548160ff0219169083151502179055509050506000808154809291906001019190505550505050565b828054600181600116156101000203166002900490600052602060002090601f016020900481019282601f1061055157805160ff191683800117855561057f565b8280016001018555821561057f579182015b8281111561057e578251825591602001919060010190610563565b5b50905061058c9190610590565b5090565b6105b291905b808211156105ae576000816000905550600101610596565b5090565b9056fea265627a7a723158208041fed44ddd4a818cb371a97439a63efa2ad90c672275c3c0e4a5981645e08f64736f6c63430005100032",
  "source": "pragma solidity ^0.5.4;\n\ncontract Contracts {\n    uint public count = 0;\n\n    struct PersonInfo {\n        uint id;\n        string name;\n        string email;\n        bool rich;\n    }\n\n    constructor() public {\n        createPerson('liang', 'liangniangbaby@gmail.com', false);\n    }\n\n    mapping(uint => PersonInfo) public persons;\n\n    function createPerson(string memory _name, string memory _email, bool _rich) public {\n        persons[count] = PersonInfo(count, _name, _email, _rich);\n        count++;\n    }\n\n}",
  "sourcePath": "/Users/liang/3rd/0xTomb/playground/tutorial-web/contracts/contracts/contracts.sol",
  "compiler": {
    "name": "solc",
    "version": "0.5.16+commit.9c3226ce.Emscripten.clang"
  },
  "schemaVersion": "3.4.8",
  "updatedAt": "2022-07-16T19:03:01.893Z",
  "networkType": "ethereum",
  "devdoc": {
    "methods": {}
  },
  "userdoc": {
    "methods": {}
  }
}